{
  "_format": "hh-sol-artifact-1",
  "contractName": "Source",
  "sourceName": "contracts/source.sol",
  "abi": [
    {
      "inputs": [
        {
          "internalType": "contract IConnextHandler",
          "name": "_connext",
          "type": "address"
        }
      ],
      "stateMutability": "nonpayable",
      "type": "constructor"
    },
    {
      "anonymous": false,
      "inputs": [
        {
          "indexed": false,
          "internalType": "bytes32",
          "name": "transferId",
          "type": "bytes32"
        },
        {
          "indexed": false,
          "internalType": "bool",
          "name": "success",
          "type": "bool"
        },
        {
          "indexed": false,
          "internalType": "uint256",
          "name": "newValue",
          "type": "uint256"
        }
      ],
      "name": "CallbackCalled",
      "type": "event"
    },
    {
      "anonymous": false,
      "inputs": [
        {
          "indexed": false,
          "internalType": "address",
          "name": "to",
          "type": "address"
        },
        {
          "indexed": false,
          "internalType": "uint256",
          "name": "newValue",
          "type": "uint256"
        },
        {
          "indexed": false,
          "internalType": "bool",
          "name": "permissioned",
          "type": "bool"
        }
      ],
      "name": "UpdateInitiated",
      "type": "event"
    },
    {
      "inputs": [
        {
          "internalType": "address",
          "name": "to",
          "type": "address"
        },
        {
          "internalType": "address",
          "name": "asset",
          "type": "address"
        },
        {
          "internalType": "uint32",
          "name": "originDomain",
          "type": "uint32"
        },
        {
          "internalType": "uint32",
          "name": "destinationDomain",
          "type": "uint32"
        },
        {
          "internalType": "uint256",
          "name": "newValue",
          "type": "uint256"
        }
      ],
      "name": "addCommitment",
      "outputs": [],
      "stateMutability": "payable",
      "type": "function"
    },
    {
      "inputs": [
        {
          "internalType": "bytes32",
          "name": "transferId",
          "type": "bytes32"
        },
        {
          "internalType": "bool",
          "name": "success",
          "type": "bool"
        },
        {
          "internalType": "bytes",
          "name": "data",
          "type": "bytes"
        }
      ],
      "name": "callback",
      "outputs": [],
      "stateMutability": "nonpayable",
      "type": "function"
    },
    {
      "inputs": [],
      "name": "connext",
      "outputs": [
        {
          "internalType": "contract IConnextHandler",
          "name": "",
          "type": "address"
        }
      ],
      "stateMutability": "view",
      "type": "function"
    }
  ],
  "bytecode": "0x60a060405268056bc75e2d6310000060005534801561001d57600080fd5b50604051610c44380380610c44833981810160405281019061003f91906100ee565b8073ffffffffffffffffffffffffffffffffffffffff1660808173ffffffffffffffffffffffffffffffffffffffff16815250505061011b565b600080fd5b600073ffffffffffffffffffffffffffffffffffffffff82169050919050565b60006100a98261007e565b9050919050565b60006100bb8261009e565b9050919050565b6100cb816100b0565b81146100d657600080fd5b50565b6000815190506100e8816100c2565b92915050565b60006020828403121561010457610103610079565b5b6000610112848285016100d9565b91505092915050565b608051610b0761013d60003960008181610277015261035c0152610b076000f3fe6080604052600436106100345760003560e01c8063034baf0e14610039578063ac8171c514610062578063de4b05481461007e575b600080fd5b34801561004557600080fd5b50610060600480360381019061005b9190610546565b6100a9565b005b61007c60048036038101906100779190610685565b610102565b005b34801561008a57600080fd5b5061009361035a565b6040516100a0919061075f565b60405180910390f35b6000818060200190518101906100bf919061078f565b90507f1d5a81e6b7de60ebd491b1caf5ce83bd72501a4a96f1e48b22e0801995c073338484836040516100f4939291906107e9565b60405180910390a150505050565b6000807f797a6890ab0ea53082e822d5b796b130fdcf458d7ebdb03091c6d680fd399684915060019050600082846040516024016101409190610820565b604051602081830303815290604052907bffffffffffffffffffffffffffffffffffffffffffffffffffffffff19166020820180517bffffffffffffffffffffffffffffffffffffffffffffffffffffffff8381831617835250505050905060006040518061012001604052808a73ffffffffffffffffffffffffffffffffffffffff1681526020018381526020018863ffffffff1681526020018763ffffffff1681526020018a73ffffffffffffffffffffffffffffffffffffffff1681526020013073ffffffffffffffffffffffffffffffffffffffff168152602001600081526020018415158152602001600015158152509050600060405180608001604052808381526020018a73ffffffffffffffffffffffffffffffffffffffff1681526020016000548152602001600081525090507f000000000000000000000000000000000000000000000000000000000000000073ffffffffffffffffffffffffffffffffffffffff16634156a883826040518263ffffffff1660e01b81526004016102ce9190610a27565b6020604051808303816000875af11580156102ed573d6000803e3d6000fd5b505050506040513d601f19601f820116820180604052508101906103119190610a5e565b507fc60c8a023b484f76d62cf49ea20489130a48df9ee30f15c8022c2a7fadb77fe28a87600160405161034693929190610a9a565b60405180910390a150505050505050505050565b7f000000000000000000000000000000000000000000000000000000000000000081565b6000604051905090565b600080fd5b600080fd5b6000819050919050565b6103a581610392565b81146103b057600080fd5b50565b6000813590506103c28161039c565b92915050565b60008115159050919050565b6103dd816103c8565b81146103e857600080fd5b50565b6000813590506103fa816103d4565b92915050565b600080fd5b600080fd5b6000601f19601f8301169050919050565b7f4e487b7100000000000000000000000000000000000000000000000000000000600052604160045260246000fd5b6104538261040a565b810181811067ffffffffffffffff821117156104725761047161041b565b5b80604052505050565b600061048561037e565b9050610491828261044a565b919050565b600067ffffffffffffffff8211156104b1576104b061041b565b5b6104ba8261040a565b9050602081019050919050565b82818337600083830152505050565b60006104e96104e484610496565b61047b565b90508281526020810184848401111561050557610504610405565b5b6105108482856104c7565b509392505050565b600082601f83011261052d5761052c610400565b5b813561053d8482602086016104d6565b91505092915050565b60008060006060848603121561055f5761055e610388565b5b600061056d868287016103b3565b935050602061057e868287016103eb565b925050604084013567ffffffffffffffff81111561059f5761059e61038d565b5b6105ab86828701610518565b9150509250925092565b600073ffffffffffffffffffffffffffffffffffffffff82169050919050565b60006105e0826105b5565b9050919050565b6105f0816105d5565b81146105fb57600080fd5b50565b60008135905061060d816105e7565b92915050565b600063ffffffff82169050919050565b61062c81610613565b811461063757600080fd5b50565b60008135905061064981610623565b92915050565b6000819050919050565b6106628161064f565b811461066d57600080fd5b50565b60008135905061067f81610659565b92915050565b600080600080600060a086880312156106a1576106a0610388565b5b60006106af888289016105fe565b95505060206106c0888289016105fe565b94505060406106d18882890161063a565b93505060606106e28882890161063a565b92505060806106f388828901610670565b9150509295509295909350565b6000819050919050565b600061072561072061071b846105b5565b610700565b6105b5565b9050919050565b60006107378261070a565b9050919050565b60006107498261072c565b9050919050565b6107598161073e565b82525050565b60006020820190506107746000830184610750565b92915050565b60008151905061078981610659565b92915050565b6000602082840312156107a5576107a4610388565b5b60006107b38482850161077a565b91505092915050565b6107c581610392565b82525050565b6107d4816103c8565b82525050565b6107e38161064f565b82525050565b60006060820190506107fe60008301866107bc565b61080b60208301856107cb565b61081860408301846107da565b949350505050565b600060208201905061083560008301846107da565b92915050565b610844816105d5565b82525050565b600081519050919050565b600082825260208201905092915050565b60005b83811015610884578082015181840152602081019050610869565b83811115610893576000848401525b50505050565b60006108a48261084a565b6108ae8185610855565b93506108be818560208601610866565b6108c78161040a565b840191505092915050565b6108db81610613565b82525050565b6108ea8161064f565b82525050565b6108f9816103c8565b82525050565b600061012083016000830151610918600086018261083b565b50602083015184820360208601526109308282610899565b915050604083015161094560408601826108d2565b50606083015161095860608601826108d2565b50608083015161096b608086018261083b565b5060a083015161097e60a086018261083b565b5060c083015161099160c08601826108e1565b5060e08301516109a460e08601826108f0565b506101008301516109b96101008601826108f0565b508091505092915050565b600060808301600083015184820360008601526109e182826108ff565b91505060208301516109f6602086018261083b565b506040830151610a0960408601826108e1565b506060830151610a1c60608601826108e1565b508091505092915050565b60006020820190508181036000830152610a4181846109c4565b905092915050565b600081519050610a588161039c565b92915050565b600060208284031215610a7457610a73610388565b5b6000610a8284828501610a49565b91505092915050565b610a94816105d5565b82525050565b6000606082019050610aaf6000830186610a8b565b610abc60208301856107da565b610ac960408301846107cb565b94935050505056fea264697066735822122097d3a794797903db38977b05c4532c86ca00f331940966f715aac6f44f0e628264736f6c634300080b0033",
  "linkReferences": {},
  "deployedLinkReferences": {}
}