{
  "_format": "hh-sol-artifact-1",
  "contractName": "Target",
  "sourceName": "contracts/target.sol",
  "abi": [
    {
      "inputs": [
        {
          "internalType": "address",
          "name": "_verifier",
          "type": "address"
        },
        {
          "internalType": "contract IConnextHandler",
          "name": "_connext",
          "type": "address"
        },
        {
          "internalType": "address",
          "name": "_executor",
          "type": "address"
        }
      ],
      "stateMutability": "nonpayable",
      "type": "constructor"
    },
    {
      "anonymous": false,
      "inputs": [
        {
          "indexed": true,
          "internalType": "uint256",
          "name": "groupId",
          "type": "uint256"
        },
        {
          "indexed": false,
          "internalType": "uint8",
          "name": "depth",
          "type": "uint8"
        },
        {
          "indexed": false,
          "internalType": "uint256",
          "name": "zeroValue",
          "type": "uint256"
        }
      ],
      "name": "GroupCreated",
      "type": "event"
    },
    {
      "anonymous": false,
      "inputs": [
        {
          "indexed": true,
          "internalType": "uint256",
          "name": "groupId",
          "type": "uint256"
        },
        {
          "indexed": false,
          "internalType": "uint256",
          "name": "identityCommitment",
          "type": "uint256"
        },
        {
          "indexed": false,
          "internalType": "uint256",
          "name": "root",
          "type": "uint256"
        }
      ],
      "name": "MemberAdded",
      "type": "event"
    },
    {
      "anonymous": false,
      "inputs": [
        {
          "indexed": true,
          "internalType": "uint256",
          "name": "groupId",
          "type": "uint256"
        },
        {
          "indexed": false,
          "internalType": "uint256",
          "name": "identityCommitment",
          "type": "uint256"
        },
        {
          "indexed": false,
          "internalType": "uint256",
          "name": "root",
          "type": "uint256"
        }
      ],
      "name": "MemberRemoved",
      "type": "event"
    },
    {
      "anonymous": false,
      "inputs": [
        {
          "indexed": false,
          "internalType": "uint256",
          "name": "nullifierHash",
          "type": "uint256"
        }
      ],
      "name": "NullifierHashAdded",
      "type": "event"
    },
    {
      "anonymous": false,
      "inputs": [
        {
          "indexed": true,
          "internalType": "address",
          "name": "previousOwner",
          "type": "address"
        },
        {
          "indexed": true,
          "internalType": "address",
          "name": "newOwner",
          "type": "address"
        }
      ],
      "name": "OwnershipTransferred",
      "type": "event"
    },
    {
      "inputs": [
        {
          "internalType": "uint256",
          "name": "identityCommitment",
          "type": "uint256"
        }
      ],
      "name": "addCommitment",
      "outputs": [],
      "stateMutability": "nonpayable",
      "type": "function"
    },
    {
      "inputs": [
        {
          "internalType": "uint256",
          "name": "entity",
          "type": "uint256"
        },
        {
          "internalType": "uint256",
          "name": "identityCommitment",
          "type": "uint256"
        }
      ],
      "name": "addTestCommitment",
      "outputs": [],
      "stateMutability": "nonpayable",
      "type": "function"
    },
    {
      "inputs": [],
      "name": "connext",
      "outputs": [
        {
          "internalType": "contract IConnextHandler",
          "name": "",
          "type": "address"
        }
      ],
      "stateMutability": "view",
      "type": "function"
    },
    {
      "inputs": [
        {
          "internalType": "uint256",
          "name": "value",
          "type": "uint256"
        }
      ],
      "name": "createEntity",
      "outputs": [],
      "stateMutability": "nonpayable",
      "type": "function"
    },
    {
      "inputs": [],
      "name": "executor",
      "outputs": [
        {
          "internalType": "contract IExecutor",
          "name": "",
          "type": "address"
        }
      ],
      "stateMutability": "view",
      "type": "function"
    },
    {
      "inputs": [
        {
          "internalType": "uint256",
          "name": "groupId",
          "type": "uint256"
        }
      ],
      "name": "getDepth",
      "outputs": [
        {
          "internalType": "uint8",
          "name": "",
          "type": "uint8"
        }
      ],
      "stateMutability": "view",
      "type": "function"
    },
    {
      "inputs": [
        {
          "internalType": "uint256",
          "name": "groupId",
          "type": "uint256"
        }
      ],
      "name": "getNumberOfLeaves",
      "outputs": [
        {
          "internalType": "uint256",
          "name": "",
          "type": "uint256"
        }
      ],
      "stateMutability": "view",
      "type": "function"
    },
    {
      "inputs": [
        {
          "internalType": "uint256",
          "name": "groupId",
          "type": "uint256"
        }
      ],
      "name": "getRoot",
      "outputs": [
        {
          "internalType": "uint256",
          "name": "",
          "type": "uint256"
        }
      ],
      "stateMutability": "view",
      "type": "function"
    },
    {
      "inputs": [
        {
          "internalType": "uint256",
          "name": "id",
          "type": "uint256"
        }
      ],
      "name": "getTreeInfo",
      "outputs": [
        {
          "internalType": "uint256[]",
          "name": "",
          "type": "uint256[]"
        },
        {
          "internalType": "uint256",
          "name": "",
          "type": "uint256"
        }
      ],
      "stateMutability": "view",
      "type": "function"
    },
    {
      "inputs": [
        {
          "internalType": "uint256",
          "name": "",
          "type": "uint256"
        },
        {
          "internalType": "uint256",
          "name": "",
          "type": "uint256"
        }
      ],
      "name": "groupCommitments",
      "outputs": [
        {
          "internalType": "uint256",
          "name": "",
          "type": "uint256"
        }
      ],
      "stateMutability": "view",
      "type": "function"
    },
    {
      "inputs": [
        {
          "internalType": "uint256",
          "name": "",
          "type": "uint256"
        }
      ],
      "name": "groupDeposits",
      "outputs": [
        {
          "internalType": "uint256",
          "name": "",
          "type": "uint256"
        }
      ],
      "stateMutability": "view",
      "type": "function"
    },
    {
      "inputs": [],
      "name": "originContract",
      "outputs": [
        {
          "internalType": "address",
          "name": "",
          "type": "address"
        }
      ],
      "stateMutability": "view",
      "type": "function"
    },
    {
      "inputs": [],
      "name": "originDomain",
      "outputs": [
        {
          "internalType": "uint32",
          "name": "",
          "type": "uint32"
        }
      ],
      "stateMutability": "view",
      "type": "function"
    },
    {
      "inputs": [],
      "name": "owner",
      "outputs": [
        {
          "internalType": "address",
          "name": "",
          "type": "address"
        }
      ],
      "stateMutability": "view",
      "type": "function"
    },
    {
      "inputs": [],
      "name": "renounceOwnership",
      "outputs": [],
      "stateMutability": "nonpayable",
      "type": "function"
    },
    {
      "inputs": [
        {
          "internalType": "address",
          "name": "newOwner",
          "type": "address"
        }
      ],
      "name": "transferOwnership",
      "outputs": [],
      "stateMutability": "nonpayable",
      "type": "function"
    },
    {
      "inputs": [],
      "name": "verifier",
      "outputs": [
        {
          "internalType": "contract IVerifier",
          "name": "",
          "type": "address"
        }
      ],
      "stateMutability": "view",
      "type": "function"
    },
    {
      "inputs": [
        {
          "internalType": "bytes32",
          "name": "_sig",
          "type": "bytes32"
        },
        {
          "internalType": "uint256",
          "name": "_nullifierHash",
          "type": "uint256"
        },
        {
          "internalType": "uint256[8]",
          "name": "_proof",
          "type": "uint256[8]"
        },
        {
          "internalType": "uint256",
          "name": "entityId",
          "type": "uint256"
        }
      ],
      "name": "verifyTest",
      "outputs": [],
      "stateMutability": "view",
      "type": "function"
    },
    {
      "inputs": [
        {
          "internalType": "bytes32",
          "name": "_sig",
          "type": "bytes32"
        },
        {
          "internalType": "uint256",
          "name": "nullifierHash",
          "type": "uint256"
        },
        {
          "internalType": "uint256[8]",
          "name": "_proof",
          "type": "uint256[8]"
        },
        {
          "internalType": "uint256",
          "name": "entityId",
          "type": "uint256"
        },
        {
          "internalType": "address",
          "name": "to",
          "type": "address"
        },
        {
          "internalType": "uint32",
          "name": "destinationDomain",
          "type": "uint32"
        },
        {
          "internalType": "address",
          "name": "asset",
          "type": "address"
        }
      ],
      "name": "withdraw",
      "outputs": [],
      "stateMutability": "nonpayable",
      "type": "function"
    }
  ],
  "bytecode": "0x60a06040523480156200001157600080fd5b5060405162002b0938038062002b098339818101604052810190620000379190620004c2565b620000576200004b6200014860201b60201c565b6200015060201b60201c565b82600660006101000a81548173ffffffffffffffffffffffffffffffffffffffff021916908373ffffffffffffffffffffffffffffffffffffffff1602179055508173ffffffffffffffffffffffffffffffffffffffff1660808173ffffffffffffffffffffffffffffffffffffffff168152505080600860006101000a81548173ffffffffffffffffffffffffffffffffffffffff021916908373ffffffffffffffffffffffffffffffffffffffff16021790555062000126670de0b6b3a76400006200021660201b60201c565b6200013f674563918244f400006200021660201b60201c565b505050620007a8565b600033905090565b6000600260009054906101000a900473ffffffffffffffffffffffffffffffffffffffff16905081600260006101000a81548173ffffffffffffffffffffffffffffffffffffffff021916908373ffffffffffffffffffffffffffffffffffffffff1602179055508173ffffffffffffffffffffffffffffffffffffffff168173ffffffffffffffffffffffffffffffffffffffff167f8be0079c531659141344cd1fd0a4f28419497f9722a3daafe3b4186f6b6457e060405160405180910390a35050565b600560008154809291906200022b9062000557565b919050555062000247600554601460006200026460201b60201c565b806003600060055481526020019081526020016000208190555050565b7f30644e72e131a029b85045b68181585d2833e84879b9709143e1f593f00000018310620002c9576040517f08c379a0000000000000000000000000000000000000000000000000000000008152600401620002c0906200062c565b60405180910390fd5b6000620002dc84620003e660201b60201c565b60ff161462000322576040517f08c379a00000000000000000000000000000000000000000000000000000000081526004016200031990620006c4565b60405180910390fd5b6001600084815260200190815260200160002073__$4c0484323457fe1a856f46a4759b553fe4$__63b4bdd117909184846040518463ffffffff1660e01b815260040162000373939291906200071c565b60006040518083038186803b1580156200038c57600080fd5b505af4158015620003a1573d6000803e3d6000fd5b50505050827fc3082aa494e9088c2c9f0fb62a0b6bd46e6699acb94cfba35be29b95a93f68c88383604051620003d99291906200077b565b60405180910390a2505050565b60006001600083815260200190815260200160002060000160009054906101000a900460ff169050919050565b600080fd5b600073ffffffffffffffffffffffffffffffffffffffff82169050919050565b6000620004458262000418565b9050919050565b620004578162000438565b81146200046357600080fd5b50565b60008151905062000477816200044c565b92915050565b60006200048a8262000438565b9050919050565b6200049c816200047d565b8114620004a857600080fd5b50565b600081519050620004bc8162000491565b92915050565b600080600060608486031215620004de57620004dd62000413565b5b6000620004ee8682870162000466565b93505060206200050186828701620004ab565b9250506040620005148682870162000466565b9150509250925092565b7f4e487b7100000000000000000000000000000000000000000000000000000000600052601160045260246000fd5b6000819050919050565b600062000564826200054d565b91507fffffffffffffffffffffffffffffffffffffffffffffffffffffffffffffffff8214156200059a57620005996200051e565b5b600182019050919050565b600082825260208201905092915050565b7f53656d6170686f726547726f7570733a2067726f7570206964206d757374206260008201527f65203c20534e41524b5f5343414c41525f4649454c4400000000000000000000602082015250565b600062000614603683620005a5565b91506200062182620005b6565b604082019050919050565b60006020820190508181036000830152620006478162000605565b9050919050565b7f53656d6170686f726547726f7570733a2067726f757020616c7265616479206560008201527f7869737473000000000000000000000000000000000000000000000000000000602082015250565b6000620006ac602583620005a5565b9150620006b9826200064e565b604082019050919050565b60006020820190508181036000830152620006df816200069d565b9050919050565b8082525050565b600060ff82169050919050565b6200070581620006ed565b82525050565b62000716816200054d565b82525050565b6000606082019050620007336000830186620006e6565b620007426020830185620006fa565b6200075160408301846200070b565b949350505050565b6200076481620006ed565b82525050565b62000775816200054d565b82525050565b600060408201905062000792600083018562000759565b620007a160208301846200076a565b9392505050565b60805161233e620007cb6000396000818161053a0152610aad015261233e6000f3fe608060405234801561001057600080fd5b50600436106101215760003560e01c80639afb416c116100ad578063cee85d7e11610071578063cee85d7e14610308578063dbebcab214610326578063de4b054814610342578063e86ac1d514610360578063f2fde38b1461039157610121565b80639afb416c1461023c5780639b24b3b01461025a578063b11685271461028a578063b9c78c2b146102ba578063c34c08e5146102ea57610121565b806364335bc1116100f457806364335bc1146101ac578063715018a6146101c857806375e618c9146101d2578063797a6890146102025780638da5cb5b1461021e57610121565b8063112769da1461012657806316f0eb00146101565780631cb9d458146101725780632b7ac3f31461018e575b600080fd5b610140600480360381019061013b91906112ba565b6103ad565b60405161014d9190611309565b60405180910390f35b610170600480360381019061016b919061141b565b6103de565b005b61018c600480360381019061018791906114c2565b6105e1565b005b610196610625565b6040516101a3919061154e565b60405180910390f35b6101c660048036038101906101c191906112ba565b61064b565b005b6101d0610693565b005b6101ec60048036038101906101e791906114c2565b61071b565b6040516101f99190611585565b60405180910390f35b61021c600480360381019061021791906114c2565b610748565b005b610226610983565b60405161023391906115af565b60405180910390f35b6102446109ad565b60405161025191906115af565b60405180910390f35b610274600480360381019061026f91906114c2565b6109d3565b6040516102819190611309565b60405180910390f35b6102a4600480360381019061029f91906114c2565b6109f3565b6040516102b19190611309565b60405180910390f35b6102d460048036038101906102cf91906114c2565b610a0b565b6040516102e19190611309565b60405180910390f35b6102f2610a2b565b6040516102ff91906115eb565b60405180910390f35b610310610a51565b60405161031d9190611615565b60405180910390f35b610340600480360381019061033b9190611630565b610a67565b005b61034a610aab565b60405161035791906116ba565b60405180910390f35b61037a600480360381019061037591906114c2565b610acf565b604051610388929190611793565b60405180910390f35b6103ab60048036038101906103a691906117c3565b610b4a565b005b600460205281600052604060002081815481106103c957600080fd5b90600052602060002001600091509150505481565b6103ea87878787610c42565b610429576040517f08c379a000000000000000000000000000000000000000000000000000000000815260040161042090611827565b60405180910390fd5b600081905060006040518061012001604052808673ffffffffffffffffffffffffffffffffffffffff168152602001604051806020016040528060008152508152602001600760149054906101000a900463ffffffff1663ffffffff1681526020018563ffffffff1681526020018673ffffffffffffffffffffffffffffffffffffffff168152602001600073ffffffffffffffffffffffffffffffffffffffff16815260200160008152602001600015158152602001600015158152509050600060405180608001604052808381526020018573ffffffffffffffffffffffffffffffffffffffff168152602001600360008a8152602001908152602001600020548152602001600081525090507f000000000000000000000000000000000000000000000000000000000000000073ffffffffffffffffffffffffffffffffffffffff16634156a883826040518263ffffffff1660e01b81526004016105919190611a41565b6020604051808303816000875af11580156105b0573d6000803e3d6000fd5b505050506040513d601f19601f820116820180604052508101906105d49190611a78565b5050505050505050505050565b600560008154809291906105f490611ad4565b919050555061060860055460146000610c9d565b806003600060055481526020019081526020016000208190555050565b600660009054906101000a900473ffffffffffffffffffffffffffffffffffffffff1681565b6004600083815260200190815260200160002081908060018154018082558091505060019003906000526020600020016000909190919091505561068f8282610e0b565b5050565b61069b610f23565b73ffffffffffffffffffffffffffffffffffffffff166106b9610983565b73ffffffffffffffffffffffffffffffffffffffff161461070f576040517f08c379a000000000000000000000000000000000000000000000000000000000815260040161070690611b69565b60405180910390fd5b6107196000610f2b565b565b60006001600083815260200190815260200160002060000160009054906101000a900460ff169050919050565b600760009054906101000a900473ffffffffffffffffffffffffffffffffffffffff1673ffffffffffffffffffffffffffffffffffffffff163373ffffffffffffffffffffffffffffffffffffffff16632b59241f6040518163ffffffff1660e01b81526004016020604051808303816000875af11580156107ce573d6000803e3d6000fd5b505050506040513d601f19601f820116820180604052508101906107f29190611b9e565b73ffffffffffffffffffffffffffffffffffffffff161480156108a25750600760149054906101000a900463ffffffff1663ffffffff163373ffffffffffffffffffffffffffffffffffffffff1663938b5f326040518163ffffffff1660e01b81526004016020604051808303816000875af1158015610876573d6000803e3d6000fd5b505050506040513d601f19601f8201168201806040525081019061089a9190611be0565b63ffffffff16145b80156108fb5750600860009054906101000a900473ffffffffffffffffffffffffffffffffffffffff1673ffffffffffffffffffffffffffffffffffffffff163373ffffffffffffffffffffffffffffffffffffffff16145b61093a576040517f08c379a000000000000000000000000000000000000000000000000000000000815260040161093190611c7f565b60405180910390fd5b610945600182610e0b565b600460006001815260200190815260200160002081908060018154018082558091505060019003906000526020600020016000909190919091505550565b6000600260009054906101000a900473ffffffffffffffffffffffffffffffffffffffff16905090565b600760009054906101000a900473ffffffffffffffffffffffffffffffffffffffff1681565b600060016000838152602001908152602001600020600101549050919050565b60036020528060005260406000206000915090505481565b600060016000838152602001908152602001600020600201549050919050565b600860009054906101000a900473ffffffffffffffffffffffffffffffffffffffff1681565b600760149054906101000a900463ffffffff1681565b6000610a72826109d3565b9050610aa48582868587600660009054906101000a900473ffffffffffffffffffffffffffffffffffffffff16610ff1565b5050505050565b7f000000000000000000000000000000000000000000000000000000000000000081565b6060600060046000848152602001908152602001600020610aef846109d3565b81805480602002602001604051908101604052809291908181526020018280548015610b3a57602002820191906000526020600020905b815481526020019060010190808311610b26575b5050505050915091509150915091565b610b52610f23565b73ffffffffffffffffffffffffffffffffffffffff16610b70610983565b73ffffffffffffffffffffffffffffffffffffffff1614610bc6576040517f08c379a0000000000000000000000000000000000000000000000000000000008152600401610bbd90611b69565b60405180910390fd5b600073ffffffffffffffffffffffffffffffffffffffff168173ffffffffffffffffffffffffffffffffffffffff161415610c36576040517f08c379a0000000000000000000000000000000000000000000000000000000008152600401610c2d90611d11565b60405180910390fd5b610c3f81610f2b565b50565b600080601490506000610c54846109d3565b9050610c868782888789600660009054906101000a900473ffffffffffffffffffffffffffffffffffffffff16610ff1565b610c8f8661121a565b600192505050949350505050565b7f30644e72e131a029b85045b68181585d2833e84879b9709143e1f593f00000018310610cff576040517f08c379a0000000000000000000000000000000000000000000000000000000008152600401610cf690611da3565b60405180910390fd5b6000610d0a8461071b565b60ff1614610d4d576040517f08c379a0000000000000000000000000000000000000000000000000000000008152600401610d4490611e35565b60405180910390fd5b6001600084815260200190815260200160002073__$4c0484323457fe1a856f46a4759b553fe4$__63b4bdd117909184846040518463ffffffff1660e01b8152600401610d9c93929190611e7a565b60006040518083038186803b158015610db457600080fd5b505af4158015610dc8573d6000803e3d6000fd5b50505050827fc3082aa494e9088c2c9f0fb62a0b6bd46e6699acb94cfba35be29b95a93f68c88383604051610dfe929190611eb1565b60405180910390a2505050565b6000610e168361071b565b60ff161415610e5a576040517f08c379a0000000000000000000000000000000000000000000000000000000008152600401610e5190611f4c565b60405180910390fd5b6001600083815260200190815260200160002073__$4c0484323457fe1a856f46a4759b553fe4$__63168703fa9091836040518363ffffffff1660e01b8152600401610ea7929190611f6c565b60006040518083038186803b158015610ebf57600080fd5b505af4158015610ed3573d6000803e3d6000fd5b505050506000610ee2836109d3565b9050827f03fd27265b7dd1f55558bedc22a58fa3b10afb1be776e614bd5a7ba7b94994068383604051610f16929190611f95565b60405180910390a2505050565b600033905090565b6000600260009054906101000a900473ffffffffffffffffffffffffffffffffffffffff16905081600260006101000a81548173ffffffffffffffffffffffffffffffffffffffff021916908373ffffffffffffffffffffffffffffffffffffffff1602179055508173ffffffffffffffffffffffffffffffffffffffff168173ffffffffffffffffffffffffffffffffffffffff167f8be0079c531659141344cd1fd0a4f28419497f9722a3daafe3b4186f6b6457e060405160405180910390a35050565b60008085815260200190815260200160002060009054906101000a900460ff1615611051576040517f08c379a000000000000000000000000000000000000000000000000000000000815260040161104890612030565b60405180910390fd5b600061105c87611248565b90508173ffffffffffffffffffffffffffffffffffffffff16635fe8c13b60405180604001604052808660006008811061109957611098612050565b5b60200201358152602001866001600881106110b7576110b6612050565b5b602002013581525060405180604001604052806040518060400160405280896002600881106110e9576110e8612050565b5b602002013581526020018960036008811061110757611106612050565b5b6020020135815250815260200160405180604001604052808960046008811061113357611132612050565b5b602002013581526020018960056008811061115157611150612050565b5b602002013581525081525060405180604001604052808860066008811061117b5761117a612050565b5b602002013581526020018860076008811061119957611198612050565b5b602002013581525060405180608001604052808c81526020018b81526020018781526020018a8152506040518563ffffffff1660e01b81526004016111e19493929190612285565b60006040518083038186803b1580156111f957600080fd5b505afa15801561120d573d6000803e3d6000fd5b5050505050505050505050565b600160008083815260200190815260200160002060006101000a81548160ff02191690831515021790555050565b600060088260405160200161125d91906122ed565b6040516020818303038152906040528051906020012060001c901c9050919050565b600080fd5b6000819050919050565b61129781611284565b81146112a257600080fd5b50565b6000813590506112b48161128e565b92915050565b600080604083850312156112d1576112d061127f565b5b60006112df858286016112a5565b92505060206112f0858286016112a5565b9150509250929050565b61130381611284565b82525050565b600060208201905061131e60008301846112fa565b92915050565b6000819050919050565b61133781611324565b811461134257600080fd5b50565b6000813590506113548161132e565b92915050565b600080fd5b60008190508260206008028201111561137b5761137a61135a565b5b92915050565b600073ffffffffffffffffffffffffffffffffffffffff82169050919050565b60006113ac82611381565b9050919050565b6113bc816113a1565b81146113c757600080fd5b50565b6000813590506113d9816113b3565b92915050565b600063ffffffff82169050919050565b6113f8816113df565b811461140357600080fd5b50565b600081359050611415816113ef565b92915050565b60008060008060008060006101c0888a03121561143b5761143a61127f565b5b60006114498a828b01611345565b975050602061145a8a828b016112a5565b965050604061146b8a828b0161135f565b95505061014061147d8a828b016112a5565b94505061016061148f8a828b016113ca565b9350506101806114a18a828b01611406565b9250506101a06114b38a828b016113ca565b91505092959891949750929550565b6000602082840312156114d8576114d761127f565b5b60006114e6848285016112a5565b91505092915050565b6000819050919050565b600061151461150f61150a84611381565b6114ef565b611381565b9050919050565b6000611526826114f9565b9050919050565b60006115388261151b565b9050919050565b6115488161152d565b82525050565b6000602082019050611563600083018461153f565b92915050565b600060ff82169050919050565b61157f81611569565b82525050565b600060208201905061159a6000830184611576565b92915050565b6115a9816113a1565b82525050565b60006020820190506115c460008301846115a0565b92915050565b60006115d58261151b565b9050919050565b6115e5816115ca565b82525050565b600060208201905061160060008301846115dc565b92915050565b61160f816113df565b82525050565b600060208201905061162a6000830184611606565b92915050565b600080600080610160858703121561164b5761164a61127f565b5b600061165987828801611345565b945050602061166a878288016112a5565b935050604061167b8782880161135f565b92505061014061168d878288016112a5565b91505092959194509250565b60006116a48261151b565b9050919050565b6116b481611699565b82525050565b60006020820190506116cf60008301846116ab565b92915050565b600081519050919050565b600082825260208201905092915050565b6000819050602082019050919050565b61170a81611284565b82525050565b600061171c8383611701565b60208301905092915050565b6000602082019050919050565b6000611740826116d5565b61174a81856116e0565b9350611755836116f1565b8060005b8381101561178657815161176d8882611710565b975061177883611728565b925050600181019050611759565b5085935050505092915050565b600060408201905081810360008301526117ad8185611735565b90506117bc60208301846112fa565b9392505050565b6000602082840312156117d9576117d861127f565b5b60006117e7848285016113ca565b91505092915050565b600082825260208201905092915050565b50565b60006118116000836117f0565b915061181c82611801565b600082019050919050565b6000602082019050818103600083015261184081611804565b9050919050565b611850816113a1565b82525050565b600081519050919050565b600082825260208201905092915050565b60005b83811015611890578082015181840152602081019050611875565b8381111561189f576000848401525b50505050565b6000601f19601f8301169050919050565b60006118c182611856565b6118cb8185611861565b93506118db818560208601611872565b6118e4816118a5565b840191505092915050565b6118f8816113df565b82525050565b60008115159050919050565b611913816118fe565b82525050565b6000610120830160008301516119326000860182611847565b506020830151848203602086015261194a82826118b6565b915050604083015161195f60408601826118ef565b50606083015161197260608601826118ef565b5060808301516119856080860182611847565b5060a083015161199860a0860182611847565b5060c08301516119ab60c0860182611701565b5060e08301516119be60e086018261190a565b506101008301516119d361010086018261190a565b508091505092915050565b600060808301600083015184820360008601526119fb8282611919565b9150506020830151611a106020860182611847565b506040830151611a236040860182611701565b506060830151611a366060860182611701565b508091505092915050565b60006020820190508181036000830152611a5b81846119de565b905092915050565b600081519050611a728161132e565b92915050565b600060208284031215611a8e57611a8d61127f565b5b6000611a9c84828501611a63565b91505092915050565b7f4e487b7100000000000000000000000000000000000000000000000000000000600052601160045260246000fd5b6000611adf82611284565b91507fffffffffffffffffffffffffffffffffffffffffffffffffffffffffffffffff821415611b1257611b11611aa5565b5b600182019050919050565b7f4f776e61626c653a2063616c6c6572206973206e6f7420746865206f776e6572600082015250565b6000611b536020836117f0565b9150611b5e82611b1d565b602082019050919050565b60006020820190508181036000830152611b8281611b46565b9050919050565b600081519050611b98816113b3565b92915050565b600060208284031215611bb457611bb361127f565b5b6000611bc284828501611b89565b91505092915050565b600081519050611bda816113ef565b92915050565b600060208284031215611bf657611bf561127f565b5b6000611c0484828501611bcb565b91505092915050565b7f4578706563746564206f726967696e20636f6e7472616374206f6e206f72696760008201527f696e20646f6d61696e2063616c6c6564206279204578656375746f7200000000602082015250565b6000611c69603c836117f0565b9150611c7482611c0d565b604082019050919050565b60006020820190508181036000830152611c9881611c5c565b9050919050565b7f4f776e61626c653a206e6577206f776e657220697320746865207a65726f206160008201527f6464726573730000000000000000000000000000000000000000000000000000602082015250565b6000611cfb6026836117f0565b9150611d0682611c9f565b604082019050919050565b60006020820190508181036000830152611d2a81611cee565b9050919050565b7f53656d6170686f726547726f7570733a2067726f7570206964206d757374206260008201527f65203c20534e41524b5f5343414c41525f4649454c4400000000000000000000602082015250565b6000611d8d6036836117f0565b9150611d9882611d31565b604082019050919050565b60006020820190508181036000830152611dbc81611d80565b9050919050565b7f53656d6170686f726547726f7570733a2067726f757020616c7265616479206560008201527f7869737473000000000000000000000000000000000000000000000000000000602082015250565b6000611e1f6025836117f0565b9150611e2a82611dc3565b604082019050919050565b60006020820190508181036000830152611e4e81611e12565b9050919050565b8082525050565b611e6581611569565b82525050565b611e7481611284565b82525050565b6000606082019050611e8f6000830186611e55565b611e9c6020830185611e5c565b611ea96040830184611e6b565b949350505050565b6000604082019050611ec66000830185611576565b611ed360208301846112fa565b9392505050565b7f53656d6170686f726547726f7570733a2067726f757020646f6573206e6f742060008201527f6578697374000000000000000000000000000000000000000000000000000000602082015250565b6000611f366025836117f0565b9150611f4182611eda565b604082019050919050565b60006020820190508181036000830152611f6581611f29565b9050919050565b6000604082019050611f816000830185611e55565b611f8e6020830184611e6b565b9392505050565b6000604082019050611faa60008301856112fa565b611fb760208301846112fa565b9392505050565b7f53656d6170686f7265436f72653a20796f752063616e6e6f742075736520746860008201527f652073616d65206e756c6c696669657220747769636500000000000000000000602082015250565b600061201a6036836117f0565b915061202582611fbe565b604082019050919050565b600060208201905081810360008301526120498161200d565b9050919050565b7f4e487b7100000000000000000000000000000000000000000000000000000000600052603260045260246000fd5b600060029050919050565b600081905092915050565b6000819050919050565b6000602082019050919050565b6120b58161207f565b6120bf818461208a565b92506120ca82612095565b8060005b838110156120fb5781516120e28782611710565b96506120ed8361209f565b9250506001810190506120ce565b505050505050565b600060029050919050565b600081905092915050565b6000819050919050565b600081905092915050565b6121378161207f565b6121418184612123565b925061214c82612095565b8060005b8381101561217d5781516121648782611710565b965061216f8361209f565b925050600181019050612150565b505050505050565b6000612191838361212e565b60408301905092915050565b6000602082019050919050565b6121b381612103565b6121bd818461210e565b92506121c882612119565b8060005b838110156121f95781516121e08782612185565b96506121eb8361219d565b9250506001810190506121cc565b505050505050565b600060049050919050565b600081905092915050565b6000819050919050565b6000602082019050919050565b61223781612201565b612241818461220c565b925061224c82612217565b8060005b8381101561227d5781516122648782611710565b965061226f83612221565b925050600181019050612250565b505050505050565b60006101808201905061229b60008301876120ac565b6122a860408301866121aa565b6122b560c08301856120ac565b6122c361010083018461222e565b95945050505050565b6000819050919050565b6122e76122e282611324565b6122cc565b82525050565b60006122f982846122d6565b6020820191508190509291505056fea26469706673582212200025c582a0b22f5b21141de76635b826d9f44ed566f3064f02cd53a66346dc5b64736f6c634300080b0033",
  "linkReferences": {
    "@zk-kit/incremental-merkle-tree.sol/contracts/IncrementalBinaryTree.sol": {
      "IncrementalBinaryTree": [
        {
          "length": 20,
          "start": 823
        },
        {
          "length": 20,
          "start": 5421
        },
        {
          "length": 20,
          "start": 5690
        }
      ]
    }
  },
  "deployedLinkReferences": {
    "@zk-kit/incremental-merkle-tree.sol/contracts/IncrementalBinaryTree.sol": {
      "IncrementalBinaryTree": [
        {
          "length": 20,
          "start": 3426
        },
        {
          "length": 20,
          "start": 3695
        }
      ]
    }
  }
}